:1000000016EF00F01450016A135C03E213C000F015
:100010000CD0006A080E156E133600361450005CC2
:10002000D8B0006E0136152EF7D71200F86AD09EB0
:100030000E6AC180C182C184C1963F0E046E060E55
:10004000056E5B0E066E4F0E076E660E086E6D0E29
:10005000096E7D0E0A6E070E0B6E7F0E0C6E6F0E14
:100060000D6E000E946EFF0E926E000E956E946AE9
:100070008B6A956A8C6A928080A038D0420E006E9E
:10008000002EFED700000E2A0E50640801E10E6A11
:100090000EC013F00A0E146EB5DF01C00FF00EC0D3
:1000A00013F00A0E146EAEDF00C010F0036A0F509A
:1000B000040FE96E000E0320EA6EEFCF13F0946A8E
:1000C00013C08BFF036A1050040FE96E000E03206B
:1000D000EA6EEFCF13F0956A13C08CFF928080B068
:1000E000FDD7420E006E002EFED70000928280A245
:1000F00038D0420E006E002EFED700000E060E52C3
:1001000002E1630E0E6E0EC013F00A0E146E7ADF5B
:1001100001C011F00EC013F00A0E146E73DF00C0A0
:1001200012F0036A1150040FE96E000E0320EA6E0C
:10013000EFCF13F0946A13C08BFF036A1250040FC1
:10014000E96E000E0320EA6EEFCF13F0956A13C03C
:100150008CFF928280B2FDD7420E006E002EFED739
:06016000000089D7030036
:020000040030CA
:0E00000000210C0E000181000FC00FE00F4028
:00000001FF
;PIC18F452
;CRC=9A64  CREATED="15-Nis-23 11:22"
